:100AA1004B42445F4445434F4445522076322E35F4
:100AB1003868202843292054726F6E6978203230BB
:100AC10032350D0A007073326275663D2562582019
:100AD10073656E64206C65647320746573740A00B9
:100AE1007073325F6B6264206E6F7420666F756E17
:100AF100642C2064697361626C6520657874206977
:100B01006E740A006D61696E206C6F6F700A004926
:100B11004E545F4D533D25626420544D523D25583E
:100B21000D0A00524154453D2562640D0A00494EAB
:100B310043204D533D25626420544D523D25580DAF
:100B41000A00444543204D533D25626420544D52D3
:100B51003D25580D0A00494E4320524154453D253B
:100B610062640D0A0044454320524154453D2562CB
:100B7100640D0A006B65793D30782562580A00FFE3
:100B81000AA11B1B1B1B21312131000040322333E1
:100B91002333243424341E1E5E362535253526376D
:100BA10026372A382A38283928390909090911111B
:100BB1005151171757570505454512125252191928
:100BC10059591414545415155555090949490F0F0C
:100BD1004F4F010141410404444413135353080886
:100BE100484806064646070747470A0A4A4A0B0B82
:100BF1004B4B3A3B3A3B0C0C4C4C1A1A5A5A1818AC
:100C010058580303434316165656020242420E0E2B
:100C11004E4E0D0D4D4D3C2C3C2C3E2E3E2E3F2F6D
:100C21003F2F2F2F2F2F0808080830303030313157
:100C3100313132323232333333331C1C7C5C2B3D45
:100C41002B3D293029301F1F5F2D292929291B1BE5
:100C51001B1B343434343535353536363636373773
:100C610037377E607E60101050501B1B7B5B1D1D53
:100C71007D5D2A2A2A2A151515153838383839394B
:100C810039392E2E2E2E2B2B2B2B0D0D0D0D0B0B43
:100C91000B0B20202020222722273F3F3F3F2020EF
:100CA1002020282828282D2D2D2D0D0D0D0D2C2C23
:100CB1002C2C7F7F7F7F0A0A0A0A0808080815156D
:100CC10015151B1B1B1B2131213100004032233321
:100CD1002333243424341E1E5E362535253526372C
:100CE10026372A382A3828392839090909091111DA
:100CF1005171171757770505456512125272191967
:100D010059791414547415155575090949690F0F4A
:100D11004F6F0101416104044464131353730808C4
:100D2100486806064666070747670A0A4A6A0B0BC0
:100D31004B6B3A3B3A3B0C0C4C6C1A1A5A7A18180A
:100D410058780303436316165676020242620E0E6A
:100D51004E6E0D0D4D6D3C2C3C2C3E2E3E2E3F2FEC
:100D61003F2F2F2F2F2F0808080830303030313116
:100D7100313132323232333333331C1C7C5C2B3D04
:100D81002B3D293029301F1F5F2D292929291B1BA4
:100D91001B1B343434343535353536363636373732
:100DA10037377E607E60101050701B1B7B5B1D1DF2
:100DB1007D5D2A2A2A2A151515153838383839390A
:100DC10039392E2E2E2E2B2B2B2B0D0D0D0D0B0B02
:100DD1000B0B20202020222722273F3F3F3F2020AE
:100DE1002020282828282D2D2D2D0D0D0D0D2C2CE2
:100DF1002C2C7F7F7F7F0A0A0A0A0808080815152C
:020E01001515C5
:101A6800011305010C4F010BD7010D00010A0001FC
:0B1A78000900011100010E0001120422
:061C6100E4F50FF5082276
:101BF400C3EF64809480400FE5086480F8EF64804C
:0A1C04009850047F0180027F002247
:1018D5007DFFC3E508648094815065E50FFB339572
:1018E500E0FAC374089BFBE49AFAD3EF9BEA6480A1
:1018F500F8EE6480985049AD080508AC07ED75F021
:1019050007A424D7F8A6047468250FF9E4ED75F04B
:1019150007A424D4F8760008760008A601ED75F032
:1019250007A424D8F8E4F6ED75F007A424D9F8E463
:10193500F6ED75F007A424DAF8E4F6EF250FF50FB8
:02194500AF05EC
:01194700227D
:101745008F248D25121BF4EF70030217D2E5247543
:10175500F007A424D7F8E6FF3395E0FEE52475F0FD
:1017650007A424DAF8E6C39FEE6480F874809850E5
:101775005CE52475F007A424D4F8860308E6FA0886
:10178500E6F9E52475F007A424D8F8E6F582758313
:1017950000E525120565E52475F007A424D8F8E6CB
:1017A5002401FFE433FEE52475F007A424D7F8E609
:1017B500FD3395E0FC120599E52475F007A424D8BE
:0E17C500F8A605E52475F007A424DAF806223C
:0219BB008F2A71
:1019BD007BFF121BF4EF605FE52A75F007A424DAB4
:1019CD00F8E66053E52A75F007A424D4F8860308D9
:1019DD00E6FA08E6F9E52A75F007A424D9F8E6FF3A
:1019ED00F582758300120526FBEF2401FFE433FE1B
:1019FD00E52A75F007A424D7F8E6FD3395E0FC122F
:101A0D000599E52A75F007A424D9F8A605E52A75E8
:091A1D00F007A424DAF816AF0367
:011A2600229D
:0E1C38007401A807088002C333D8FC55A0FF32
:011C4600227B
:101B1500EF30E31C5390F7EF54F7FF7410A8070854
:101B25008002C333D8FCF4FFE59044305FF5902282
:0E1B3500439030E59054F0FEEF44084EF590DA
:011B4300227F
:03000B000214C913
:1014C900C0E0C0F0C083C082C0D075D000C000C0E9
:0D14D90001C002C003C004C005C006C0076A
:1014E600858023E5235440FF65116008E523A2E6C5
:1014F60092968F11E5235480FF650E6007E523332E
:1015060092978F0EE50A70030215C8752200AF2266
:10151600121C38EF60030215A1E5B054F0C4540F55
:10152600F523E52275F028A4FDACF0E50D75F00471
:10153600A42DFFE5F03CCF2403CF3400FEE5233095
:10154600E20874402FFF74013EFEE52320E00720E9
:10155600E10474FD8007E52320E10A74FE2FFF7481
:10156600FF3EFE800AE52320E005EF1F70011EE521
:101576000D75F008A424842522F806E6FD640160B2
:1015860006EDC39512402174832FF582740B3EF548
:1015960083E493FDAF10121745800DE50D75F00835
:1015A600A424842522F876000522E522C394085057
:1015B60003021514050DE50DC3940A400A750D00C6
:1015C6008005AF0D121B15630AFF850B8C850C8AEF
:1015D600D007D006D005D004D003D002D001D00069
:0B15E600D0D0D082D083D0F0D0E03213
:101ADF00AC13E41202B67B907AC279F5783E12020B
:101AEF000FE4FBFA797A7844120106A804A905AA33
:101AFF0006AB07E4FFFE7D807C471200111202EA5D
:051B0F00EFF50C8E0B48
:011B140022AE
:10100B007580E075B0FF759850438921758DE5D2D9
:10101B008ED299C296C2973085FD900B80E493FBDC
:10102B00740193FA740293F9120694121C617F08EF
:10103B007E001218D58F1075A0FFE4F590D288D2E0
:10104B00A8850B8C850C8AD28CD2A9D2B8D2AF12C0
:10105B001C0EE4F528F529121B918F27E527B4FF09
:10106B00110529E52970020528C394FFE52894FF93
:10107B0040E5E527F46026C296C2977509017BFF10
:10108B007A0A79C6852733120694121A27AD4CAF0C
:10109B005F121B6F7F027E00121AA5800BC2A87B0A
:1010AB00FF7A0A79E11206947BFF7A0B7905120617
:1010BB0094AF101219BB8F26E526F470030211F3BF
:1010CB00E526647F7053E511604FE50E604B900B86
:1010DB0080E493FB740193FA740293F91219487527
:1010EB0033FF75340B753510851336E50BF537E586
:1010FB000CF5387B007A00797012068E7B007A0033
:10110B0079701219487B007A007970120694753346
:10111B00FF75340B7535248072E52664157021E557
:10112B0011601DE50E6019E513641E70030211F3C7
:10113B000513121ADF7533FF75340B75352F8025A8
:10114B00E5266408702CE5116028E50E6024E51394
:10115B00640170030211F31513121ADF7533FF7557
:10116B00340B753543851336E50BF537E50CF53840
:10117B008040E526640B7018E5116014E50E6010D5
:10118B0005127533FF75340B753557851236802272
:10119B00E526640A7036E5116032E50E602EE51225
:1011AB006401600215127533FF75340B7535668556
:1011BB0012367B007A00797012068E7B007A0079EA
:1011CB00701219487B007A0079708019AF26121BB8
:1011DB00B5D2847F057E00121C4BC2847BFF7A0B39
:1011EB007975852633120694E50970030210BC123B
:0511FB0013930210BC7B
:1012000050533220494E4320524154453D2562649B
:101210000D0A005053322044454320524154453D6D
:101220002562640D0A0050533220494E4320444544
:101230004C41593D2562640D0A005053322044450B
:10124000432044454C41593D2562640D0A007273A8
:10125000740A007073323D30782562582061706CDA
:101260003D307825580A001C61410101326242027A
:1012700002216343030323644404042465450505F4
:101280002B66460606346747070733684808084355
:10129000694909093B6A4A0A0A426B4B0B0B4B6CC2
:1012A0004C0C0C3A6D4D0D0D316E4E0E0E446F4FC1
:1012B0000F0F4D7050101015715111112D725212E7
:1012C000121B735313132C745414143C75551515B9
:1012D0002A765616161D775717172278581818357C
:1012E000795919191A7A5A1A1A16312100001E3220
:1012F000400000263323000025342400002E35252D
:10130000000036365E00003D372600003E382A00D9
:1013100000463928000045302900004E2D5F0000AE
:10132000553D2B0000545B7B00005B5D7D00005D44
:101330005C7C00004C3B3A00005227220000412C0C
:101340003C0000492E3E00004A2F3F00000E607E08
:10135000000029202000005A0D0D0D0D761B1B1BCF
:101360001B0D09090909667F7F7F7F750B0B0B0B2E
:10137000F50B0B0B0B720A0A0A0AF20A0A0A0A6B2D
:1013800008080808EB080808087415151515F41561
:031390001515151B
:101A8300016400015E000166000163000162000160
:101A93006000016700014D00016500015F0B014C0F
:011AA3000141
:0300030002169F43
:0D169F00C0E0C0D075D000C000C006C0077C
:1016AC00A2B3E433FFE566601114602114604014AA
:1016BC00604D24FB500280768067EF700BF567F568
:1016CC004DF56575660180667566048061EF25656C
:1016DC00F565AE4DEFA806088002C333D8FC25672C
:1016EC00F567054DE54D64087044756602803FE56D
:1016FC00652F30E0057566038034756606802FEF24
:10170C0064017027C3E560648094905019AF6274D3
:10171C004E2FF8A66705600562E562B4100375628A
:0E172C00007566008008756605800375660707
:0B173A00D007D006D000D0D0D0E032A5
:101B910074FFFFFED3E560648094804016AF6374E8
:101BA1004E2FF8E6FF7E0015600563E563B4100370
:031BB100E4F563F5
:011BB400220E
:0B1C5500121B91EFF47002EEF460F53A
:011C60002261
:0215F1008F3237
:1015F300753300753401E4F535F5362089FDC2AF46
:10160300E4F566F567F54DF565C2B27F64FE121C1D
:101613004BC2B3D2B2C3E536940AE53564809480F5
:101623005051C3E5369408E535648094805011E544
:10163300325401F5372534F534E43533F53380136B
:10164300E536640845357008E5345401F537800301
:1016530075370120B2FDE5376004D2B38002C2B30F
:1016630030B2FD0536E53670020535E532C313F5B4
:101673003280A2D2B320B2FDA2B3E4FE33FF7CFFDB
:101683007DFF1205878E388F3930B2FDC289D2AF04
:0B1693007F407E1F121C4BAE38AF39A9
:01169E002229
:021BD8008F2A52
:101BDA00532A077FED1215F1121C55EF64FA4E7065
:091BEA0008AF2A1215F1121C5576
:011BF30022CF
:041AA5008E2A8F2BCB
:101AA900C3E52B9401E52A64809480400DD3E52B8E
:101AB9009403E52A6480948040057E007FFE227F9E
:101AC900F01215F1121C55EF64FA4E7008AF2B1283
:051AD90015F1121C557F
:011ADE0022E5
:041B6B00AD4CAF5F6F
:041B6F008F308D31F5
:101B73007FF31215F1121C55EF64FA4E700FE53125
:0D1B8300C43354E02530FF1215F1121C553B
:011B90002232
:101A27007F01121BD8121C47E4FF121BD87F041238
:101A37001BD8121C47E4FF121BD87F02121BD812B7
:101A47001C47E4FF121BD87F04121BD8121C47E463
:101A5700FF121BD87F01121BD8121C47E4FF021B81
:011A6700D8A6
:10185F0074FFFDFCE4FE75F005EEA42467F582E548
:10186F00F03412F583E4936F7051E5615413600FF8
:10187F0075F005EEA42469F582E5F034128033E5A6
:10188F006130E30F75F005EEA4246AF582E5F034BC
:10189F0012801FE561540B75F005600CEEA4246BEC
:1018AF00F582E5F03412800AEEA42468F582E5F0A3
:1018BF003412F583E4937C00FD80060EEE643C70D9
:0518CF0095AE04AF0519
:0118D40022F1
:040E03008F2C8D2D76
:100E0700E52C547FFF64117028E56154FBFEE52D46
:100E170060047D0480027D00EE4DF561E52CB41180
:100E270008E52D24FF9297804AE52D24FF929680AE
:100E370042BF1411E56154F7FFE52D60047E088079
:100E47002E7E00802AE52CB41211E56154FEFFE5E1
:100E57002D60047E0180027E008014E52CB45913B6
:100E6700E56154FDFFE52D60047E0280027E00EF00
:100E77004EF561E561540C640C7024E52C647570C3
:100E87001EE52D601AE55FC3941F400302100A0593
:100E97005F121B6B7533FF7534127535008027E5BC
:100EA70061540C640C7024E52C6472701EE52D608F
:100EB7001AE55F700302100A155F121B6B7533FF8B
:100EC700753412753513855F368059E561540C64A6
:100ED7000C7027E52C64747021E52D601DE54CC36B
:100EE7009403400302100A054C121B6B7533FF7500
:100EF7003412753526854C36802AE561540C640C0E
:100F0700703DE52C646B7037E52D6033E54C70035D
:100F170002100A154C121B6B7533FF7534127535A9
:100F27003A854C367B007A00797012068E7B007A00
:100F37000079701219487B007A007970020694E5EF
:100F47002CB40719E52D60157BFF7A12794E12062E
:100F570094C2857F0A7E00121C4BD28522E52D7034
:100F67000302100AE52C24FB6053248E601D24F92C
:100F7700602E24267058E56130E4085361EF53640E
:100F8700FB80304361104364048028E56130E50845
:100F97005361DF5364FD800643612043640280137D
:100FA700E56130E6085361BF5364FE800643614044
:100FB7004364017FED1215F1AF640215F1900B80C8
:100FC700E493FB740193FA740293F9021948AF2C66
:100FD70012185F8E2E8F2F7BFF7A127953852C3351
:100FE700852E34852F35120694E52FF47003E52EF0
:100FF700F46010AF2F121BB5D2847F057E00121C40
:031007004BC28455
:01100A0022C3
:10139300121B918E2A8F2BE52BF47003E52AF47030
:1013A300030214C8E52B64AA452A7003F55E22E5FF
:1013B3005EB40B0040030214C89013C3F8282873CB
:1013C3000213E402142402142002144402145B02E4
:1013D30014690214770214850214930214A10214EF
:1013E300AFE52A7034E52B70030214C8241F60256F
:1013F30024F370030214C824FE601624F67003025B
:1014030014C824FB70030214C8241F700C755E01FA
:1014130022755E0222755E0422AF2B8020AF2B80E3
:1014230030E52B64F0452A7004755E0322E52B64D6
:1014330012452A7003F55E22E52B4480FF7D01806F
:1014430012E52B6412452A7003F55E22E52B4480D6
:10145300FFE4FD120E03806AE52B6414452A700431
:10146300755E0522805CE52B6477452A7004755E02
:101473000622804EE52B64E1452A7004755E07223F
:101483008040E52B64F0452A7004755E08228032A3
:10149300E52B6414452A7004755E09228024E52B2C
:1014A30064F0452A7004755E0A228016E52B647782
:1014B300452A700E7D017FF7120E03E4FD7FF712BC
:0514C3000E03E4F55EDC
:0114C8002201
:041C47007FFF7E2F6E
:0A1C4B00EF1F70011E144E70F72207
:101C0E00E4FFD280000000C2800FBF08F5D2820030
:041C1E000000C2827E
:011C2200229F
:101BB500E4FEEF30E704D2818002C281D2800000CA
:101BC50000C280EF25E0FF0EBE08E7D282000000CC
:021BD500C282CA
:011BD70022EB
:061948008B308A31893268
:10194E00121C238F34AB30AA31A93212050D605C04
:10195E00640D60250532E5327002053114F9120569
:10196E000DFF121BB5D2847F057E00121C4BC28464
:10197E007F907E01121C4B80CC74012532F532E42F
:10198E003531F531753301E53414FFE533C39F501E
:10199E00B47F08121BB5D2847F057E00121C4BC289
:0C19AE00847F907E01121C4B053380DB0F
:0119BA00220A
:10000E00020356E86480F8E933E83360110460F0C7
:10001E00ED33EC337009E8FCE9FDEAFEEBFF220458
:10002E0060DED3EB9FEA9EE99DE8C2E78CF0C2F753
:10003E0095F0400CE8CCF8E9CDF9EACEFAEBCFFB1F
:10004E0012032185D0F05804700320D5B3E8047054
:10005E00075002B2D502036092D5EC0460F7E4CCEF
:10006E00C0E0C398F8603B94186008400DD0E0FBE8
:10007E00020338E4FBFAC9FC8028E830E406E4C940
:10008E00FBE4CAFCE830E305E4C9CACBFCE854073C
:10009E006010F8C3E913F9EA13FAEB13FBEC13FC47
:1000AE00D8F130F52FC3E49CFCEF9BFFEE9AFEEDEA
:1000BE0099FDD0E0FBEF4E4D4C701222DB03020394
:1000CE005DEC2CFCEF33FFEE33FEED33FDED30E750
:1000DE00EB020338EF2BFFEE3AFEED39FDD0E0FBDD
:1000EE0050130BBB0003020360ED13FDEE13FEEF86
:0800FE0013FFEC13FC020338B0
:10010600EC4D6011E8497017ED33EC3304600DE4F3
:10011600FCFFFEFD22E933E8330470F802035612B1
:10012600032158046009E4CC2481500628500902B2
:10013600036028400302035DC0E0EB4A7044B980C7
:1001460006D0E0FB02034CEF4E701CBD8008EBFFAF
:10015600EAFEE9FD80EBE98DF0A4FEE5F00201EF91
:10016600E9CDF9EAFEEBFFEF89F0A4FCE5F0CE89D4
:10017600F0A42EFFE435F0CD89F0A42DFEE435F091
:100186008067EF4E7005BD80D780C3EF8BF0A4ACBF
:10019600F0EE8BF0A42CFCE435F0F8EF8AF0A42CFA
:1001A600E5F038FCE433CB8DF0A42CFCE5F03BF80D
:1001B600EE8AF0A42CFCE5F038F8E433CF89F0A4FD
:1001C6002CFCE5F038CF3400CE89F0A42FFFE5F003
:1001D6003EFEE433C98DF0A42EFEE5F039CD8AF05B
:1001E600A42FFFE5F03EFEE43DFD33D0E0FB5007D3
:1001F6000BBB000F020360EC2CFCEF33FFEE33FE6B
:06020600ED33FD02033898
:10020C00020360EC5D046005E859047003020356B8
:10021C00120321580460F6EC4860F2EC7004FDFE09
:10022C00FF22C860DB2481C85009C39860025006C5
:10023C0002035D9850CAF582E9294B4A7005AB82DE
:10024C0002034C75F0007C1A7880C3EF9BEE9AED9C
:10025C0099400DC3EF9BFFEE9AFEED99FDE842F03D
:10026C00DC23ACF0D0E0FFD0E0FED0E0FDAB822090
:10027C00E7101BEB60BAEC2CFCEF33FFEE33FEED1A
:10028C0033FD020338E803F830E705C0F075F000E1
:10029C00EF2FFFEE33FEED33FD40B830E7C280AAFE
:1002AC0075F020800E75F010800575F0087D007ECD
:1002BC00007F003392D530D5031205EEEC3340109D
:1002CC00EF33FFEE33FEED33FDEC33FCD5F0ED22D6
:0E02DC00E5F0247EA2D513CC92E7CDCEFF2212
:1002EA00EDD2E7CD33EC3392D524814006E4FFFE0C
:1002FA00FDFC22FCE4CFCECDCC24E0501174FF806B
:10030A00EDC3CC13CCCD13CDCE13CECF13CF047007
:07031A00F030D5DE0205EE14
:10063200E5472433F8E6054722783030070278335D
:10064200E475F0011205FC02050D2000EB7F2ED2AD
:10065200008018EF540F2490D43440D4FF30040BA0
:10066200EF24BFB41A0050032461FFE5486002156D
:1006720048054BE54B7002054A30070D7830E475AA
:10068200F0011205FCEF020553021B447403D2076A
:100692008003E4C207F5478B308A318932E4F5489A
:1006A200F54AF54BE54860077F2012066D80F57527
:1006B20049FFC201C200C202C203C205C206C20889
:1006C20012063BFF700D3007057F0012067EAF4B0E
:1006D200AE4A22B4255FC2D5C20412063BFF24D023
:1006E200B40A00501A75F00A784830D50508B6FFEA
:1006F2000106C6A426F620D5047002D20380D924AE
:10070200CFB41A00EF5004C2E5D20402096BD20141
:1007120080C6D20080C0D20280BCD2D580BAD205B7
:1007220080B47F2012066D2002077401B548004094
:10073200F1120632FF12066D0206A6D208D2068018
:1007420095120632FB120632FA120632F94A4B7041
:100752000679627A0A7BFF20022EE548602A7E0033
:100762008E8275830012052660060EEE654970F0D2
:10077200C2D5EBC0E0EAC0E0E9C0E0EE1209CBD09E
:10078200E0F9D0E0FAD0E0FB12050DFF60AAEBC061
:10079200E0EAC0E0E9C0E012066DD0E02401F9D041
:1007A200E03400FAD0E0FBE5490460DCD549D980A9
:1007B20087D20280A21209AE60F7E54970010412E5
:1007C200036BA949600DE549600914F549120A5500
:1007D200EF60F3EA30E702F404C3995077EAF425B4
:1007E200490430E701E404F549800D1209AE60C105
:1007F200EA0549254912036BEA7846F630E701E437
:10080200254904D54904200501141209CBE4C0E0AE
:10081200120A557846E6601320E70714F6120655C9
:10082200802204F6D0E014C0E07F00120655E549AC
:10083200600712064C1549800B30050312064CD096
:10084200E00206A6D0E00480C51209AE60A0E54928
:100852000412036B7846EAF6E549200502600104BA
:0508620024041209CB83
:1008670074FF04C0E0120A55120655E54920050237
:10087700600312064CD0E0B549E87F4512065F7861
:1008870046E67F2B30E7047F2DF404C0E012066DA7
:10089700D0E075F00A84C0F0120656D0E012065672
:1008A7000206A6791080027908C206C2088008D21B
:1008B700D5790A8004790AC2D5E549047002F54959
:1008C700E4FAFDFEFF120632FC7B08200113120634
:1008D70032FD7B1030000A120632FE120632FF7B11
:1008E70020EC3382D592D55013C3E43000069FFF26
:1008F700E49EFEE42001039DFDE49CFCE4CBF8C2EA
:1009070001EC700CCFCECDCCE824F8F870F380174B
:10091700C3EF33FFEE33FEED33FDEC33FCEB33FB7C
:10092700994002FB0FD8E9EB300105F8D0E0C44845
:10093700B201C0E00AEC4D4E4F78207B0070C2EA4E
:10094700B5490040BCC0E01209CDD0F0D0E020018D
:1009570004C4C0E0C4B201C0F0120656D0F0D5F00E
:10096700EB0206A612060C07435308AA5807144CB5
:1009770007104208AE4F08B64408B649072943088E
:10098700BC5507ED46084B4507B7470A825007187D
:100997002D071C2E073F2B072023073D200A6B2A14
:1009A70006D84800000737E549B4FF037549061222
:1009B7000632FC120632FD120632FE120632FF78AC
:1009C7003F02039A790AA2D5200314300509B9100A
:1009D700020404B9080104A2D5200602500104202C
:1009E70002689202B548005034C0E07F20300319F6
:1009F7007F30A20272067205500F120A24C202C289
:100A070006C205C2087F30800F300503E9C0E01237
:100A1700066D300503D0E0F9D0E0B548CC300517B6
:100A27007F30B9100C12066D7F583004077F78802D
:100A370003B9080312066D3002057F2D02066D7F8C
:100A4700202008F87F2B2006F322920280CF7F0018
:100A5700B407005005243FF8E6FF22286E756C6C3A
:100A67002900D2011206323001F8C201784830D588
:100A77000108F60206D82D504349581206322403BE
:100A8700B405004001E4900A7D9312065E743A12A1
:0A0A9700065ED2037548040208AAA7
:10032100E9D2E7C933E833F892D5EDD2E7CD33EC22
:0703310033FC5002B2D5229B
:10033800EC30E7100FBF000C0EBE00080DBD000426
:100348000BEB6014A2D5EB13FCED92E7FD2274FFD2
:10035800FCFDFEFF22E480F8A2D574FF13FC7D802B
:03036800E480EF3F
:10036B00F920E72824F950037907E4F42402FB1859
:10037B00DBFDE624FB5014E9600DE4F618E604F609
:0F038B00B40A08E4F6D9F57401F60A22C2D522A5
:10039A00ED33EC3392D5FA602AB4FF33EDC2E77B32
:1003AA00FF60067A0379BFE4227A0379C820D5046C
:1003BA007A0379C3224E614E002B494E46002D49DD
:1003CA004E4600E47A08F608DAFC7B00740722E855
:1003DA00C0E0ECC0E0EDC0E0EEC0E0EFC0E0EA75DE
:1003EA00F010A4CAABF075F04DA42BFBE435F0FC79
:1003FA00EA2410FAEB34C5FBEC34D9FCEDC2E7FF72
:10040A0075F056A4F42411C5F0F434C58FF0A42A6B
:10041A00E5F03BE43CF620E7141204CDD0E0FFD02F
:10042A00E0FED0E0FDD0E0FC12020F8014F40412CA
:10043A0004CDD0E0FFD0E0FED0E0FDD0E0FC120118
:10044A0006D0E0F8E6FAEDD2E7CD33EC332482FBAE
:10045A00E4C3CF33CFCE33CECD33CD33DBF37B07FB
:10046A0075F00A846004F6081B0AE5F0F6088FF0B6
:10047A00740AA4FFACF08EF0740AA42CFEACF050FF
:10048A00010C8DF0740AA42CFDE435F0F608DBDECD
:03049A00740722C2
:10049D003F8000004120000042C80000447A000067
:1004AD00461C400047C35000497424004B189680E9
:1004BD004CBEBC205A0E1BCA6753C21C749DC5AEE0
:1004CD00FB60065407601C23231204FBEB543860B9
:1004DD00091204E71204F6120106ECF8EDF9EEFA32
:1004ED00EFCB22EB1204F680F1543803241C900458
:1004FD009DFE93FC0EEE93FD0EEE930ECE93FF221A
:030000000217D311
:0C17D300787FE4F6D8FD7581DA02181A60
:10050D00BB010689828A83E0225002E722BBFE02EC
:09051D00E32289828A83E493221F
:10052600BB010CE58229F582E5833AF583E022508A
:1005360006E92582F8E622BBFE06E92582F8E222D4
:0D054600E58229F582E5833AF583E49322EE
:10055300BB010689828A83F0225002F722BBFE0187
:02056300F32281
:10056500F8BB010DE58229F582E5833AF583E8F0CC
:10057500225006E92582C8F622BBFE05E92582C878
:02058500F22260
:10058700EF8DF0A4A8F0CF8CF0A428CE8DF0A42E88
:02059700FE2242
:10059900BC000BBE0029EF8DF084FFADF022E4CC46
:1005A900F875F008EF2FFFEE33FEEC33FCEE9DEC0F
:1005B900984005FCEE9DFE0FD5F0E9E4CEFD22ED55
:1005C900F8F5F0EE8420D21CFEADF075F008EF2F9F
:1005D900FFED33FD4007985006D5F0F222C398FD90
:0505E9000FD5F0EA222D
:0E05EE00C3E49FFFE49EFEE49DFDE49CFC221E
:1005FC00FAE6FB0808E6F925F0F618E6CA3AF62200
:10060C00D083D082F8E4937012740193700DA3A37D
:10061C0093F8740193F5828883E473740293686091
:06062C00EFA3A3A380DF91
:101B4400EFB40A07740D121B4F740A309811A89948
:101B5400B8130CC2983098FDA899C298B811F63001
:071B640099FDC299F59922D9
:101C2300E4FFFE12050D600C0FEF70010E09E97061
:051C3300F20A80EF221F
:1017DF0002100BE493A3F8E493A34003F68001F205
:1017EF0008DFF48029E493A3F85407240CC8C3330B
:1017FF00C4540F4420C8834004F456800146F6DFDA
:10180F00E4800B0102040810204080901A68E47EE7
:10181F00019360BCA3FF543F30E509541FFEE493CE
:10182F00A360010ECF54C025E060A840B8E493A395
:10183F00FAE493A3F8E493A3C8C582C8CAC583CAC0
:10184F00F0A3C8C582C8CAC583CADFE9DEE780BE78
:011AA4000041
:00000001FF
