:100AA1004B42445F4445434F4445522076322E35F4
:100AB10038202843292054726F6E697820323032F1
:100AC100350D0A007073326275663D2562582073D8
:100AD100656E64206C65647320746573740A0070BC
:100AE10073325F6B6264206E6F7420666F756E6423
:100AF1002C2064697361626C652065787420696E6D
:100B0100740A006D61696E206C6F6F700A00494E46
:100B1100545F4D533D25626420544D523D25580D7F
:100B21000A00524154453D2562640D0A00494E4375
:100B3100204D533D25626420544D523D25580D0AE8
:100B410000444543204D533D25626420544D523DA0
:100B510025580D0A00494E4320524154453D256216
:100B6100640D0A0044454320524154453D256264C9
:100B71000D0A006B65793D30782562580A00FF0A3D
:100B8100A11B1B1B1B2131213100004032233323C8
:100B910033243424341E1E5E36253525352637266A
:100BA100372A382A382839283909090909111151F0
:100BB1005117175757050545451212525219195920
:100BC100591414545415155555090949490F0F4F16
:100BD1004F0101414104044444131353530808488D
:100BE1004806064646070747470A0A4A4A0B0B4B7F
:100BF1004B3A3B3A3B0C0C4C4C1A1A5A5A1818589F
:100C0100580303434316165656020242420E0E4E35
:100C11004E0D0D4D4D3C2C3C2C3E2E3E2E3F2F3F7C
:100C21002F2F2F2F2F080808083030303031313165
:100C31003132323232333333331C1C7C5C2B3D2B4B
:100C41003D293029301F1F5F2D292929291B1B1BF5
:100C51001B34343434353535353636363637373757
:100C6100377E607E60101050501B1B7B5B1D1D7D0D
:100C71005D2A2A2A2A15151515383838383939398F
:100C8100392E2E2E2E2B2B2B2B0D0D0D0D0B0B0B71
:100C91000B20202020222722273F3F3F3F202020DA
:100CA10020282828282D2D2D2D0D0D0D0D2C2C2C17
:100CB1002C7F7F7F7F0A0A0A0A0808080815151584
:100CC100151B1B1B1B213121310000403223332313
:100CD10033243424341E1E5E362535253526372629
:100CE100372A382A382839283909090909111151AF
:100CF100711717577705054565121252721919595F
:100D0100791414547415155575090949690F0F4F54
:100D11006F010141610404446413135373080848CB
:100D21006806064666070747670A0A4A6A0B0B4BBD
:100D31006B3A3B3A3B0C0C4C6C1A1A5A7A181858FD
:100D4100780303436316165676020242620E0E4E74
:100D51006E0D0D4D6D3C2C3C2C3E2E3E2E3F2F3FFB
:100D61002F2F2F2F2F080808083030303031313124
:100D71003132323232333333331C1C7C5C2B3D2B0A
:100D81003D293029301F1F5F2D292929291B1B1BB4
:100D91001B34343434353535353636363637373716
:100DA100377E607E60101050701B1B7B5B1D1D7DAC
:100DB1005D2A2A2A2A15151515383838383939394E
:100DC100392E2E2E2E2B2B2B2B0D0D0D0D0B0B0B30
:100DD1000B20202020222722273F3F3F3F20202099
:100DE10020282828282D2D2D2D0D0D0D0D2C2C2CD6
:100DF1002C7F7F7F7F0A0A0A0A0808080815151543
:010E010015DB
:101A6100011305010C4F010BD7010D00010A000103
:0B1A71000900011100010E0001120429
:061C5A00E4F50FF508227D
:101BED00C3EF64809480400FE5086480F8EF648053
:0A1BFD009850047F0180027F00224F
:1018CE007DFFC3E508648094815065E50FFB339579
:1018DE00E0FAC374089BFBE49AFAD3EF9BEA6480A8
:1018EE00F8EE6480985049AD080508AC07ED75F028
:1018FE0007A424D5F8A6047466250FF9E4ED75F057
:10190E0007A424D2F8760008760008A601ED75F03B
:10191E0007A424D6F8E4F6ED75F007A424D7F8E46E
:10192E00F6ED75F007A424D8F8E4F6EF250FF50FC1
:02193E00AF05F3
:011940002284
:10173E008F248D25121BEDEF70030217CBE5247558
:10174E00F007A424D5F8E6FF3395E0FEE52475F006
:10175E0007A424D8F8E6C39FEE6480F874809850EE
:10176E005CE52475F007A424D2F8860308E6FA088F
:10177E00E6F9E52475F007A424D6F8E6F58275831C
:10178E0000E525120565E52475F007A424D6F8E6D4
:10179E002401FFE433FEE52475F007A424D5F8E612
:1017AE00FD3395E0FC120599E52475F007A424D6C7
:0E17BE00F8A605E52475F007A424D8F8062245
:0219B4008F287A
:1019B6007BFF121BEDEF605FE52875F007A424D8C6
:1019C600F8E66053E52875F007A424D2F8860308E4
:1019D600E6FA08E6F9E52875F007A424D7F8E6FF45
:1019E600F582758300120526FBEF2401FFE433FE22
:1019F600E52875F007A424D5F8E6FD3395E0FC123A
:101A06000599E52875F007A424D7F8A605E52875F5
:091A1600F007A424D8F816AF0370
:011A1F0022A4
:0E1C31007401A807088002C333D8FC55A0FF39
:011C3F002282
:101B0E00EF30E31C5390F7EF54F7FF7410A807085B
:101B1E008002C333D8FCF4FFE59044305FF5902289
:0E1B2E00439030E59054F0FEEF44084EF590E1
:011B3C002286
:03000B000214C21A
:1014C200C0E0C0F0C083C082C0D075D000C000C0F0
:0D14D20001C002C003C004C005C006C00771
:1014DF00858023E5235440FF65116008E523A2E6CC
:1014EF0092968F11E5235480FF650E6007E5233335
:1014FF0092978F0EE50A70030215C1752200AF2275
:10150F00121C31EF600302159AE5B054F0C4540F6A
:10151F00F523E52275F028A4FDACF0E50D75F00478
:10152F00A42DFFE5F03CCF2403CF3400FEE523309C
:10153F00E20874402FFF74013EFEE52320E00720F0
:10154F00E10474FD8007E52320E10A74FE2FFF7488
:10155F00FF3EFE800AE52320E005EF1F70011EE528
:10156F000D75F008A424822522F806E6FD640160BB
:10157F0006EDC39512402174822FF582740B3EF550
:10158F0083E493FDAF1012173E800DE50D75F00843
:10159F00A424822522F876000522E522C394085060
:1015AF000302150D050DE50DC3940A400A750D00D4
:1015BF008005AF0D121B0E630AFF850B8C850C8AFD
:1015CF00D007D006D005D004D003D002D001D00070
:0B15DF00D0D0D082D083D0F0D0E0321A
:101AD800AC13E41202B67B907AC279F5783E120212
:101AE8000FE4FBFA797A7844120106A804A905AA3A
:101AF80006AB07E4FFFE7D807C471200111202EA64
:051B0800EFF50C8E0B4F
:011B0D0022B5
:10100A007580E075B0FF759850438921758DE5D2DA
:10101A008ED299C296C2973085FD900B7FE493FBDE
:10102A00740193FA740293F9120694121C5A7F08F7
:10103A007E001218CE8F1075A0FFE4F590D288D2E8
:10104A00A8850B8C850C8AD28CD2A9D2B8D2AF12C1
:10105A001C0774FFFFFE121C4474FFFFFE121C449F
:10106A0074FFFFFE121C44121B8A8F27E527F460C7
:10107A0026C296C2977509017BFF7A0A79C5852728
:10108A0031120694121A20AD4AAF5D121B687F0214
:10109A007E00121A9E800BC2A87BFF7A0A79E012A0
:1010AA0006947BFF7A0B7904120694AF101219B4D6
:1010BA008F26E526F470030211ECE526647F70534F
:1010CA00E511604FE50E604B900B7FE493FB7401D2
:1010DA0093FA740293F91219417531FF75320B753F
:1010EA00330F851334E50BF535E50CF5367B007ABD
:1010FA0000796E12068E7B007A00796E1219417B96
:10110A00007A00796E1206947531FF75320B7533C9
:10111A00238072E52664157021E511601DE50E60D5
:10112A0019E513641E70030211EC0513121AD8751F
:10113A0031FF75320B75332E8025E5266408702C35
:10114A00E5116028E50E6024E513640170030211BD
:10115A00EC1513121AD87531FF75320B75334285A7
:10116A001334E50BF535E50CF5368040E526640BBE
:10117A007018E5116014E50E601005127531FF75DF
:10118A00320B7533568512348022E526640A70368E
:10119A00E5116032E50E602EE51264016002151257
:1011AA007531FF75320B7533658512347B007A0011
:1011BA00796E12068E7B007A00796E1219417B00D5
:1011CA007A00796E8019AF26121BAED2847F057E13
:1011DA0000121C44C2847BFF7A0B79748526311273
:0F11EA000694E50970030210B512138C0210B5BC
:1011F90050533220494E4320524154453D256264A3
:101209000D0A005053322044454320524154453D74
:101219002562640D0A0050533220494E432044454B
:101229004C41593D2562640D0A0050533220444512
:10123900432044454C41593D2562640D0A007273AF
:10124900740A007073323D30782562582061706CE1
:101259003D307825580A001C614101013262420281
:1012690002216343030323644404042465450505FB
:101279002B6646060634674707073368480808435C
:10128900694909093B6A4A0A0A426B4B0B0B4B6CC9
:101299004C0C0C3A6D4D0D0D316E4E0E0E446F4FC8
:1012A9000F0F4D7050101015715111112D725212EE
:1012B900121B735313132C745414143C75551515C0
:1012C9002A765616161D7757171722785818183583
:1012D900795919191A7A5A1A1A16312100001E3227
:1012E900400000263323000025342400002E352534
:1012F900000036365E00003D372600003E382A00E1
:1013090000463928000045302900004E2D5F0000B5
:10131900553D2B0000545B7B00005B5D7D00005D4B
:101329005C7C00004C3B3A00005227220000412C13
:101339003C0000492E3E00004A2F3F00000E607E0F
:10134900000029202000005A0D0D0D0D761B1B1BD6
:101359001B0D09090909667F7F7F7F750B0B0B0B35
:10136900F50B0B0B0B720A0A0A0AF20A0A0A0A6B34
:1013790008080808EB080808087415151515F41568
:0313890015151522
:101A7C00016200015C000164000161000160000171
:101A8C005E00016500014B00016300015D0B014A22
:011A9C000148
:030003000216984A
:0D169800C0E0C0D075D000C000C006C00783
:1016A500A2B3E433FFE564601114602114604014B3
:1016B500604D24FB500280768067EF700BF565F571
:1016C5004BF56375640180667564048061EF25637D
:1016D500F563AE4BEFA806088002C333D8FC256539
:1016E500F565054BE54B64087044756402803FE57C
:1016F500632F30E0057564038034756406802FEF31
:1017050064017027C3E55E648094905019AF6074DE
:101715004C2FF8A665055E0560E560B4100375609D
:0E172500007564008008756405800375640714
:0B173300D007D006D000D0D0D0E032AC
:101B8A0074FFFFFED3E55E648094804016AF6174F3
:101B9A004C2FF8E6FF7E00155E0561E561B410037F
:031BAA00E4F561FE
:011BAD002215
:0B1C4E00121B8AEFF47002EEF460F548
:011C59002268
:0215EA008F3040
:1015EC00753100753201E4F533F5342089FDC2AF55
:1015FC00E4F564F565F54BF563C2B27F64FE121C2D
:10160C0044C2B3D2B2C3E534940AE5336480948007
:10161C005051C3E5349408E533648094805011E54F
:10162C00305401F5352532F532E43531F53180137E
:10163C00E534640845337008E5325401F535800310
:10164C0075350120B2FDE5356004D2B38002C2B31A
:10165C0030B2FD0534E53470020533E530C313F5C3
:10166C003080A2D2B320B2FDA2B3E4FE33FF7CFFE4
:10167C007DFF1205878E368F3730B2FDC289D2AF0F
:0B168C007F407E1F121C44AE36AF37BB
:011697002230
:021BD1008F285B
:101BD3005328077FED1215EA121C4EEF64FA4E707C
:091BE30008AF281215EA121C4E8D
:011BEC0022D6
:041A9E008E288F29D6
:101AA200C3E5299401E52864809480400DD3E5299B
:101AB2009403E5286480948040057E007FFE227FA7
:101AC200F01215EA121C4EEF64FA4E7008AF29129A
:051AD20015EA121C4E94
:011AD70022EC
:041B6400AD4AAF5D7A
:041B68008F2E8D2F00
:101B6C007FF31215EA121C4EEF64FA4E700FE52F3C
:0D1B7C00C43354E0252EFF1215EA121C4E52
:011B89002239
:101A20007F01121BD1121C40E4FF121BD17F041254
:101A30001BD1121C40E4FF121BD17F02121BD112DA
:101A40001C40E4FF121BD17F04121BD1121C40E486
:101A5000FF121BD17F01121BD1121C40E4FF021B9D
:011A6000D1B4
:1018580074FFFDFCE4FE75F005EEA42460F582E556
:10186800F03412F583E4936F7051E55F5413600F01
:1018780075F005EEA42462F582E5F034128033E5B4
:101888005F30E30F75F005EEA42463F582E5F034CC
:1018980012801FE55F540B75F005600CEEA42464FC
:1018A800F582E5F03412800AEEA42461F582E5F0B1
:1018B8003412F583E4937C00FD80060EEE643C70E0
:0518C80095AE04AF0520
:0118CD0022F8
:040E02008F2A8D2B7B
:100E0600E52A547FFF64117028E55F54FBFEE52B4D
:100E160060047D0480027D00EE4DF55FE52AB41185
:100E260008E52B24FF9297804AE52B24FF929680B3
:100E360042BF1411E55F54F7FFE52B60047E08807E
:100E46002E7E00802AE52AB41211E55F54FEFFE5E6
:100E56002B60047E0180027E008014E52AB45913BB
:100E6600E55F54FDFFE52B60047E0280027E00EF05
:100E76004EF55FE55F540C640C7024E52A647570CA
:100E86001EE52B601AE55DC3941F40030210090599
:100E96005D121B647531FF7532117533F98027E5D4
:100EA6005F540C640C7024E52A6472701EE52B6096
:100EB6001AE55D7003021009155D121B647531FF9A
:100EC60075321275330C855D348059E55F540C64B8
:100ED6000C7027E52A64747021E52B601DE54AC372
:100EE60094034003021009054A121B647531FF750D
:100EF600321275331F854A34802AE55F540C640C20
:100F0600703DE52A646B7037E52B6033E54A700364
:100F1600021009154A121B647531FF7532127533BA
:100F260033854A347B007A00796E12068E7B007A0E
:100F360000796E1219417B007A00796E020694E5FB
:100F46002AB40719E52B60157BFF7A12794712063A
:100F560094C2857F0A7E00121C44D28522E52B703E
:100F660003021009E52A24FB6053248E601D24F930
:100F7600602E24267058E55F30E408535FEF536215
:100F8600FB8030435F104362048028E55F30E5084C
:100F9600535FDF5362FD8006435F20436202801386
:100FA600E55F30E608535FBF5362FE8006435F404D
:100FB6004362017FED1215EAAF620215EA900B7FDC
:100FC600E493FB740193FA740293F9021941AF2A70
:100FD6001218588E2C8F2D7BFF7A12794C852A3168
:100FE600852C32852D33120694E52DF47003E52CFD
:100FF600F46010AF2D121BAED2847F057E00121C4A
:0310060044C2845D
:0110090022C4
:10138C00121B8A8E288F29E529F47003E528F47046
:10139C00030214C1E52964AA45287003F55C22E513
:1013AC005CB40B0040030214C19013BCF8282873E2
:1013BC000213DD02141D02141902143D021454020E
:1013CC00146202147002147E02148C02149A021419
:1013DC00A8E5287034E52970030214C1241F602588
:1013EC0024F370030214C124FE601624F670030269
:1013FC0014C124FB70030214C1241F700C755C0112
:10140C0022755C0222755C0422AF298020AF2980F2
:10141C0030E52964F045287004755C0322E52964E5
:10142C001245287003F55C22E5294480FF7D01807C
:10143C0012E529641245287003F55C22E5294480E5
:10144C00FFE4FD120E02806AE5296414452870043D
:10145C00755C0522805CE529647745287004755C11
:10146C000622804EE52964E145287004755C07224C
:10147C008040E52964F045287004755C08228032B0
:10148C00E529641445287004755C09228024E5293B
:10149C0064F045287004755C0A228016E52964778F
:1014AC004528700E7D017FF7120E02E4FD7FF712C6
:0514BC000E02E4F55CE6
:0114C1002208
:041C40007FFF7E2F75
:0A1C4400EF1F70011E144E70F7220E
:101C0700E4FFD280000000C2800FBF08F5D2820037
:041C17000000C28285
:011C1B0022A6
:101BAE00E4FEEF30E704D2818002C281D2800000D1
:101BBE0000C280EF25E0FF0EBE08E7D282000000D3
:021BCE00C282D1
:011BD00022F2
:061941008B2E8A2F893075
:10194700121C1C8F32AB2EAA2FA93012050D605C1A
:10195700640D60250530E5307002052F14F9120576
:101967000DFF121BAED2847F057E00121C44C28479
:101977007F907E01121C4480CC74012530F530E441
:10198700352FF52F753101E53214FFE531C39F502F
:10199700B47F08121BAED2847F057E00121C44C29E
:0C19A700847F907E01121C44053180DB1F
:0119B3002211
:10000E00020356E86480F8E933E83360110460F0C7
:10001E00ED33EC337009E8FCE9FDEAFEEBFF220458
:10002E0060DED3EB9FEA9EE99DE8C2E78CF0C2F753
:10003E0095F0400CE8CCF8E9CDF9EACEFAEBCFFB1F
:10004E0012032185D0F05804700320D5B3E8047054
:10005E00075002B2D502036092D5EC0460F7E4CCEF
:10006E00C0E0C398F8603B94186008400DD0E0FBE8
:10007E00020338E4FBFAC9FC8028E830E406E4C940
:10008E00FBE4CAFCE830E305E4C9CACBFCE854073C
:10009E006010F8C3E913F9EA13FAEB13FBEC13FC47
:1000AE00D8F130F52FC3E49CFCEF9BFFEE9AFEEDEA
:1000BE0099FDD0E0FBEF4E4D4C701222DB03020394
:1000CE005DEC2CFCEF33FFEE33FEED33FDED30E750
:1000DE00EB020338EF2BFFEE3AFEED39FDD0E0FBDD
:1000EE0050130BBB0003020360ED13FDEE13FEEF86
:0800FE0013FFEC13FC020338B0
:10010600EC4D6011E8497017ED33EC3304600DE4F3
:10011600FCFFFEFD22E933E8330470F802035612B1
:10012600032158046009E4CC2481500628500902B2
:10013600036028400302035DC0E0EB4A7044B980C7
:1001460006D0E0FB02034CEF4E701CBD8008EBFFAF
:10015600EAFEE9FD80EBE98DF0A4FEE5F00201EF91
:10016600E9CDF9EAFEEBFFEF89F0A4FCE5F0CE89D4
:10017600F0A42EFFE435F0CD89F0A42DFEE435F091
:100186008067EF4E7005BD80D780C3EF8BF0A4ACBF
:10019600F0EE8BF0A42CFCE435F0F8EF8AF0A42CFA
:1001A600E5F038FCE433CB8DF0A42CFCE5F03BF80D
:1001B600EE8AF0A42CFCE5F038F8E433CF89F0A4FD
:1001C6002CFCE5F038CF3400CE89F0A42FFFE5F003
:1001D6003EFEE433C98DF0A42EFEE5F039CD8AF05B
:1001E600A42FFFE5F03EFEE43DFD33D0E0FB5007D3
:1001F6000BBB000F020360EC2CFCEF33FFEE33FE6B
:06020600ED33FD02033898
:10020C00020360EC5D046005E859047003020356B8
:10021C00120321580460F6EC4860F2EC7004FDFE09
:10022C00FF22C860DB2481C85009C39860025006C5
:10023C0002035D9850CAF582E9294B4A7005AB82DE
:10024C0002034C75F0007C1A7880C3EF9BEE9AED9C
:10025C0099400DC3EF9BFFEE9AFEED99FDE842F03D
:10026C00DC23ACF0D0E0FFD0E0FED0E0FDAB822090
:10027C00E7101BEB60BAEC2CFCEF33FFEE33FEED1A
:10028C0033FD020338E803F830E705C0F075F000E1
:10029C00EF2FFFEE33FEED33FD40B830E7C280AAFE
:1002AC0075F020800E75F010800575F0087D007ECD
:1002BC00007F003392D530D5031205EEEC3340109D
:1002CC00EF33FFEE33FEED33FDEC33FCD5F0ED22D6
:0E02DC00E5F0247EA2D513CC92E7CDCEFF2212
:1002EA00EDD2E7CD33EC3392D524814006E4FFFE0C
:1002FA00FDFC22FCE4CFCECDCC24E0501174FF806B
:10030A00EDC3CC13CCCD13CDCE13CECF13CF047007
:07031A00F030D5DE0205EE14
:10063200E5452431F8E6054522782E300702783167
:10064200E475F0011205FC02050D2000EB7F2ED2AD
:10065200008018EF540F2490D43440D4FF30040BA0
:10066200EF24BFB41A0050032461FFE5466002156F
:10067200460549E5497002054830070D782EE475B4
:10068200F0011205FCEF020553021B3D7403D20771
:100692008003E4C207F5458B2E8A2F8930E4F546A4
:1006A200F548F549E54660077F2012066D80F5752D
:1006B20047FFC201C200C202C203C205C206C2088B
:1006C20012063BFF700D3007057F0012067EAF4910
:1006D200AE4822B4255FC2D5C20412063BFF24D025
:1006E200B40A00501A75F00A784630D50508B6FFEC
:1006F2000106C6A426F620D5047002D20380D924AE
:10070200CFB41A00EF5004C2E5D20402096BD20141
:1007120080C6D20080C0D20280BCD2D580BAD205B7
:1007220080B47F2012066D2002077401B546004096
:10073200F1120632FF12066D0206A6D208D2068018
:1007420095120632FB120632FA120632F94A4B7041
:100752000679627A0A7BFF20022EE546602A7E0035
:100762008E8275830012052660060EEE654770F0D4
:10077200C2D5EBC0E0EAC0E0E9C0E0EE1209CBD09E
:10078200E0F9D0E0FAD0E0FB12050DFF60AAEBC061
:10079200E0EAC0E0E9C0E012066DD0E02401F9D041
:1007A200E03400FAD0E0FBE5470460DCD547D980AD
:1007B20087D20280A21209AE60F7E54770010412E7
:1007C200036BA947600DE547600914F547120A5506
:1007D200EF60F3EA30E702F404C3995077EAF425B4
:1007E200470430E701E404F547800D1209AE60C109
:1007F200EA0547254712036BEA7844F630E701E43D
:10080200254704D54704200501141209CBE4C0E0B2
:10081200120A557844E6601320E70714F6120655CB
:10082200802204F6D0E014C0E07F00120655E547AE
:10083200600712064C1547800B30050312064CD098
:10084200E00206A6D0E00480C51209AE60A0E5472A
:100852000412036B7844EAF6E547200502600104BE
:0508620024041209CB83
:1008670074FF04C0E0120A55120655E54720050239
:10087700600312064CD0E0B547E87F4512065F7863
:1008870044E67F2B30E7047F2DF404C0E012066DA9
:10089700D0E075F00A84C0F0120656D0E012065672
:1008A7000206A6791080027908C206C2088008D21B
:1008B700D5790A8004790AC2D5E547047002F5475D
:1008C700E4FAFDFEFF120632FC7B08200113120634
:1008D70032FD7B1030000A120632FE120632FF7B11
:1008E70020EC3382D592D55013C3E43000069FFF26
:1008F700E49EFEE42001039DFDE49CFCE4CBF8C2EA
:1009070001EC700CCFCECDCCE824F8F870F380174B
:10091700C3EF33FFEE33FEED33FDEC33FCEB33FB7C
:10092700994002FB0FD8E9EB300105F8D0E0C44845
:10093700B201C0E00AEC4D4E4F78207B0070C2EA4E
:10094700B5470040BCC0E01209CDD0F0D0E020018F
:1009570004C4C0E0C4B201C0F0120656D0F0D5F00E
:10096700EB0206A612060C07435308AA5807144CB5
:1009770007104208AE4F08B64408B649072943088E
:10098700BC5507ED46084B4507B7470A825007187D
:100997002D071C2E073F2B072023073D200A6B2A14
:1009A70006D84800000737E547B4FF037547061226
:1009B7000632FC120632FD120632FE120632FF78AC
:1009C7003D02039A790AA2D5200314300509B9100C
:1009D700020404B9080104A2D5200602500104202C
:1009E70002689202B546005034C0E07F20300319F8
:1009F7007F30A20272067205500F120A24C202C289
:100A070006C205C2087F30800F300503E9C0E01237
:100A1700066D300503D0E0F9D0E0B546CC300517B8
:100A27007F30B9100C12066D7F583004077F78802D
:100A370003B9080312066D3002057F2D02066D7F8C
:100A4700202008F87F2B2006F322920280CF7F0018
:100A5700B407005005243DF8E6FF22286E756C6C3C
:100A67002900D2011206323001F8C201784630D58A
:100A77000108F60206D82D504349581206322403BE
:100A8700B405004001E4900A7D9312065E743A12A1
:0A0A9700065ED2037546040208AAA9
:10032100E9D2E7C933E833F892D5EDD2E7CD33EC22
:0703310033FC5002B2D5229B
:10033800EC30E7100FBF000C0EBE00080DBD000426
:100348000BEB6014A2D5EB13FCED92E7FD2274FFD2
:10035800FCFDFEFF22E480F8A2D574FF13FC7D802B
:03036800E480EF3F
:10036B00F920E72824F950037907E4F42402FB1859
:10037B00DBFDE624FB5014E9600DE4F618E604F609
:0F038B00B40A08E4F6D9F57401F60A22C2D522A5
:10039A00ED33EC3392D5FA602AB4FF33EDC2E77B32
:1003AA00FF60067A0379BFE4227A0379C820D5046C
:1003BA007A0379C3224E614E002B494E46002D49DD
:1003CA004E4600E47A08F608DAFC7B00740722E855
:1003DA00C0E0ECC0E0EDC0E0EEC0E0EFC0E0EA75DE
:1003EA00F010A4CAABF075F04DA42BFBE435F0FC79
:1003FA00EA2410FAEB34C5FBEC34D9FCEDC2E7FF72
:10040A0075F056A4F42411C5F0F434C58FF0A42A6B
:10041A00E5F03BE43CF620E7141204CDD0E0FFD02F
:10042A00E0FED0E0FDD0E0FC12020F8014F40412CA
:10043A0004CDD0E0FFD0E0FED0E0FDD0E0FC120118
:10044A0006D0E0F8E6FAEDD2E7CD33EC332482FBAE
:10045A00E4C3CF33CFCE33CECD33CD33DBF37B07FB
:10046A0075F00A846004F6081B0AE5F0F6088FF0B6
:10047A00740AA4FFACF08EF0740AA42CFEACF050FF
:10048A00010C8DF0740AA42CFDE435F0F608DBDECD
:03049A00740722C2
:10049D003F8000004120000042C80000447A000067
:1004AD00461C400047C35000497424004B189680E9
:1004BD004CBEBC205A0E1BCA6753C21C749DC5AEE0
:1004CD00FB60065407601C23231204FBEB543860B9
:1004DD00091204E71204F6120106ECF8EDF9EEFA32
:1004ED00EFCB22EB1204F680F1543803241C900458
:1004FD009DFE93FC0EEE93FD0EEE930ECE93FF221A
:030000000217CC18
:0C17CC00787FE4F6D8FD7581D802181370
:10050D00BB010689828A83E0225002E722BBFE02EC
:09051D00E32289828A83E493221F
:10052600BB010CE58229F582E5833AF583E022508A
:1005360006E92582F8E622BBFE06E92582F8E222D4
:0D054600E58229F582E5833AF583E49322EE
:10055300BB010689828A83F0225002F722BBFE0187
:02056300F32281
:10056500F8BB010DE58229F582E5833AF583E8F0CC
:10057500225006E92582C8F622BBFE05E92582C878
:02058500F22260
:10058700EF8DF0A4A8F0CF8CF0A428CE8DF0A42E88
:02059700FE2242
:10059900BC000BBE0029EF8DF084FFADF022E4CC46
:1005A900F875F008EF2FFFEE33FEEC33FCEE9DEC0F
:1005B900984005FCEE9DFE0FD5F0E9E4CEFD22ED55
:1005C900F8F5F0EE8420D21CFEADF075F008EF2F9F
:1005D900FFED33FD4007985006D5F0F222C398FD90
:0505E9000FD5F0EA222D
:0E05EE00C3E49FFFE49EFEE49DFDE49CFC221E
:1005FC00FAE6FB0808E6F925F0F618E6CA3AF62200
:10060C00D083D082F8E4937012740193700DA3A37D
:10061C0093F8740193F5828883E473740293686091
:06062C00EFA3A3A380DF91
:101B3D00EFB40A07740D121B48740A309811A89956
:101B4D00B8130CC2983098FDA899C298B811F63008
:071B5D0099FDC299F59922E0
:101C1C00E4FFFE12050D600C0FEF70010E09E97068
:051C2C00F20A80EF2226
:1017D80002100AE493A3F8E493A34003F68001F20D
:1017E80008DFF48029E493A3F85407240CC8C33312
:1017F800C4540F4420C8834004F456800146F6DFE1
:10180800E4800B0102040810204080901A61E47EF5
:10181800019360BCA3FF543F30E509541FFEE493D5
:10182800A360010ECF54C025E060A840B8E493A39C
:10183800FAE493A3F8E493A3C8C582C8CAC583CAC7
:10184800F0A3C8C582C8CAC583CADFE9DEE780BE7F
:011A9D000048
:00000001FF
